{
  "contractName": "Voting",
  "abi": [
    {
      "inputs": [
        {
          "internalType": "bytes32[]",
          "name": "_candidateNames",
          "type": "bytes32[]"
        }
      ],
      "stateMutability": "nonpayable",
      "type": "constructor"
    },
    {
      "inputs": [
        {
          "internalType": "uint256",
          "name": "",
          "type": "uint256"
        }
      ],
      "name": "candidateList",
      "outputs": [
        {
          "internalType": "bytes32",
          "name": "",
          "type": "bytes32"
        }
      ],
      "stateMutability": "view",
      "type": "function",
      "constant": true
    },
    {
      "inputs": [
        {
          "internalType": "address",
          "name": "",
          "type": "address"
        },
        {
          "internalType": "bytes32",
          "name": "",
          "type": "bytes32"
        }
      ],
      "name": "hasVoted",
      "outputs": [
        {
          "internalType": "bool",
          "name": "",
          "type": "bool"
        }
      ],
      "stateMutability": "view",
      "type": "function",
      "constant": true
    },
    {
      "inputs": [
        {
          "internalType": "bytes32",
          "name": "",
          "type": "bytes32"
        }
      ],
      "name": "votesReceived",
      "outputs": [
        {
          "internalType": "uint256",
          "name": "",
          "type": "uint256"
        }
      ],
      "stateMutability": "view",
      "type": "function",
      "constant": true
    },
    {
      "inputs": [
        {
          "internalType": "bytes32",
          "name": "candidate",
          "type": "bytes32"
        }
      ],
      "name": "voteForCandidate",
      "outputs": [],
      "stateMutability": "nonpayable",
      "type": "function"
    },
    {
      "inputs": [
        {
          "internalType": "bytes32",
          "name": "candidate",
          "type": "bytes32"
        }
      ],
      "name": "totalVotesFor",
      "outputs": [
        {
          "internalType": "uint256",
          "name": "",
          "type": "uint256"
        }
      ],
      "stateMutability": "view",
      "type": "function",
      "constant": true
    },
    {
      "inputs": [
        {
          "internalType": "bytes32",
          "name": "candidate",
          "type": "bytes32"
        }
      ],
      "name": "validCandidate",
      "outputs": [
        {
          "internalType": "bool",
          "name": "",
          "type": "bool"
        }
      ],
      "stateMutability": "view",
      "type": "function",
      "constant": true
    }
  ],
  "bytecode": "0x60806040523480156200001157600080fd5b5060405162000af938038062000af983398181016040528101906200003791906200028c565b80600190805190602001906200004f92919062000057565b5050620002dd565b82805482825590600052602060002090810192821562000096579160200282015b828111156200009557825182559160200191906001019062000078565b5b509050620000a59190620000a9565b5090565b5b80821115620000c4576000816000905550600101620000aa565b5090565b6000604051905090565b600080fd5b600080fd5b600080fd5b6000601f19601f8301169050919050565b7f4e487b7100000000000000000000000000000000000000000000000000000000600052604160045260246000fd5b6200012c82620000e1565b810181811067ffffffffffffffff821117156200014e576200014d620000f2565b5b80604052505050565b600062000163620000c8565b905062000171828262000121565b919050565b600067ffffffffffffffff821115620001945762000193620000f2565b5b602082029050602081019050919050565b600080fd5b6000819050919050565b620001bf81620001aa565b8114620001cb57600080fd5b50565b600081519050620001df81620001b4565b92915050565b6000620001fc620001f68462000176565b62000157565b90508083825260208201905060208402830185811115620002225762000221620001a5565b5b835b818110156200024f57806200023a8882620001ce565b84526020840193505060208101905062000224565b5050509392505050565b600082601f830112620002715762000270620000dc565b5b815162000283848260208601620001e5565b91505092915050565b600060208284031215620002a557620002a4620000d2565b5b600082015167ffffffffffffffff811115620002c657620002c5620000d7565b5b620002d48482850162000259565b91505092915050565b61080c80620002ed6000396000f3fe608060405234801561001057600080fd5b50600436106100625760003560e01c80632f265cf714610067578063392e6678146100975780634a1dc5cc146100c75780637021939f146100f7578063b13c744b14610127578063cc9ab26714610157575b600080fd5b610081600480360381019061007c919061045b565b610173565b60405161008e91906104a1565b60405180910390f35b6100b160048036038101906100ac919061045b565b6101d7565b6040516100be91906104d7565b60405180910390f35b6100e160048036038101906100dc9190610550565b610239565b6040516100ee91906104d7565b60405180910390f35b610111600480360381019061010c919061045b565b610268565b60405161011e91906104a1565b60405180910390f35b610141600480360381019061013c91906105bc565b610280565b60405161014e91906105f8565b60405180910390f35b610171600480360381019061016c919061045b565b6102a4565b005b600061017e826101d7565b6101bd576040517f08c379a00000000000000000000000000000000000000000000000000000000081526004016101b490610670565b60405180910390fd5b600080838152602001908152602001600020549050919050565b600080600090505b60018054905081101561022e57826001828154811061020157610200610690565b5b90600052602060002001540361021b576001915050610234565b8080610226906106ee565b9150506101df565b50600090505b919050565b60026020528160005260406000206020528060005260406000206000915091509054906101000a900460ff1681565b60006020528060005260406000206000915090505481565b6001818154811061029057600080fd5b906000526020600020016000915090505481565b6102ad816101d7565b6102ec576040517f08c379a00000000000000000000000000000000000000000000000000000000081526004016102e390610670565b60405180910390fd5b600260003373ffffffffffffffffffffffffffffffffffffffff1673ffffffffffffffffffffffffffffffffffffffff168152602001908152602001600020600082815260200190815260200160002060009054906101000a900460ff161561038a576040517f08c379a000000000000000000000000000000000000000000000000000000000815260040161038190610782565b60405180910390fd5b600160008083815260200190815260200160002060008282546103ad91906107a2565b925050819055506001600260003373ffffffffffffffffffffffffffffffffffffffff1673ffffffffffffffffffffffffffffffffffffffff168152602001908152602001600020600083815260200190815260200160002060006101000a81548160ff02191690831515021790555050565b600080fd5b6000819050919050565b61043881610425565b811461044357600080fd5b50565b6000813590506104558161042f565b92915050565b60006020828403121561047157610470610420565b5b600061047f84828501610446565b91505092915050565b6000819050919050565b61049b81610488565b82525050565b60006020820190506104b66000830184610492565b92915050565b60008115159050919050565b6104d1816104bc565b82525050565b60006020820190506104ec60008301846104c8565b92915050565b600073ffffffffffffffffffffffffffffffffffffffff82169050919050565b600061051d826104f2565b9050919050565b61052d81610512565b811461053857600080fd5b50565b60008135905061054a81610524565b92915050565b6000806040838503121561056757610566610420565b5b60006105758582860161053b565b925050602061058685828601610446565b9150509250929050565b61059981610488565b81146105a457600080fd5b50565b6000813590506105b681610590565b92915050565b6000602082840312156105d2576105d1610420565b5b60006105e0848285016105a7565b91505092915050565b6105f281610425565b82525050565b600060208201905061060d60008301846105e9565b92915050565b600082825260208201905092915050565b7f496e76616c69642063616e646964617465000000000000000000000000000000600082015250565b600061065a601183610613565b915061066582610624565b602082019050919050565b600060208201905081810360008301526106898161064d565b9050919050565b7f4e487b7100000000000000000000000000000000000000000000000000000000600052603260045260246000fd5b7f4e487b7100000000000000000000000000000000000000000000000000000000600052601160045260246000fd5b60006106f982610488565b91507fffffffffffffffffffffffffffffffffffffffffffffffffffffffffffffffff820361072b5761072a6106bf565b5b600182019050919050565b7f416c726561647920766f74656420666f7220746869732063616e646964617465600082015250565b600061076c602083610613565b915061077782610736565b602082019050919050565b6000602082019050818103600083015261079b8161075f565b9050919050565b60006107ad82610488565b91506107b883610488565b92508282019050808211156107d0576107cf6106bf565b5b9291505056fea26469706673582212201723ac016801dcf2f048222d04443c06a8989adb0b87c5ca6899afe0afb2271664736f6c63430008130033",
  "immutableReferences": {},
  "source": "// SPDX-License-Identifier: MIT\npragma solidity ^0.8.19;\n//  Solidity Voting\ncontract Voting {\n    // \n\n    //    votesReceived  KEY VALUE   KEYbytes32  uint256()\n    // \n    mapping(bytes32 => uint256) public votesReceived;\n    //       bytes32\n    // \n    bytes32[] public candidateList;\n    //  key value  key address  KEY VALUE  key  bytes32  bool\n    // address     \n    // bool  boolean\n    // hasVoted \n    // contract  \n    mapping(address => mapping(bytes32 => bool)) public hasVoted; // \n\n    //           bytes32     _candidateNames\n    // memory\n    // \n    constructor(bytes32[] memory _candidateNames) {\n        candidateList = _candidateNames;\n    }\n\n    // \n    //     voteForCandidate   bytes32   candidate\n    function voteForCandidate(bytes32 candidate) public {\n        // require  require \n        // require  \n        require(validCandidate(candidate), \"Invalid candidate\");\n        require(\n            //msg.sendercandidate\n            !hasVoted[msg.sender][candidate],\n            \"Already voted for this candidate\"\n        ); // \n\n        votesReceived[candidate] += 1;\n        hasVoted[msg.sender][candidate] = true; // \n    }\n\n    //     totalVotesFor   bytes32   candidate uint256\n    //  view gas\n    // view \n    // \n    function totalVotesFor(bytes32 candidate) public view returns (uint256) {\n        require(validCandidate(candidate), \"Invalid candidate\");\n        return votesReceived[candidate];\n    }\n\n    // \n    function validCandidate(bytes32 candidate) public view returns (bool) {\n        for (uint i = 0; i < candidateList.length; i++) {\n            if (candidateList[i] == candidate) {\n                return true;\n            }\n        }\n        return false;\n    }\n}\n",
  "sourcePath": "/home/mr//codehome2/contracts/Voting.sol",
  "compiler": {
    "name": "solc",
    "version": "0.8.19+commit.7dd6d404.Emscripten.clang"
  },
  "schemaVersion": "3.4.16",
  "updatedAt": "2024-05-06T02:56:10.842Z",
  "networkType": "ethereum",
  "devdoc": {
    "kind": "dev",
    "methods": {},
    "version": 1
  },
  "userdoc": {
    "kind": "user",
    "methods": {},
    "version": 1
  }
}